:020000040800F2
:10000000F0FF002071020008CD920008C92F0008FF
:100010001587000861290008C59700080000000046
:1000200000000000000000000000000085940008AF
:10003000BD29000800000000CF92000819950008B3
:10004000870200088702000887020008870200086C
:10005000870200088702000887020008870200085C
:10006000C1290008052A0008992A0008870200080B
:10007000870200088702000887020008870200083C
:10008000870200088702000887020008870200082C
:10009000870200088702000887020008870200081C
:1000A000870200088702000887020008870200080C
:1000B000870200081D9500088702000887020008D3
:1000C00087020008870200088702000887020008EC
:1000D0008702000805970008899700088702000832
:1000E00087020008870200088702000887020008CC
:1000F00087020008870200088702000887020008BC
:1001000087020008870200088702000887020008AB
:10011000870200088702000821960008870200086D
:10012000870200088702000887020008870200088B
:1001300000F002F800F073F80AA090E8000C824486
:100140008344AAF10107DA4501D100F068F8AFF263
:10015000090EBAE80F0013F0010F18BFFB1A43F0A5
:1001600001031847B4590100D459010010F8013BAC
:100170000A4413F0030408BF10F8014B1D1108BF17
:1001800010F8015B641E05D010F8016B641E01F8C5
:10019000016BF9D1002D15D010F8014B03F00C03C1
:1001A0000C2BA1EB04040ABF10F8013BA4EB831451
:1001B000A4EB032405F1010314F8016B5B1E01F8A5
:1001C000016BF9D5914238BF10F8013BD1D370478C
:1001D0000023002400250026103A28BF78C1FBD850
:1001E000520728BF30C148BF0B60704766290DF029
:1001F000C480642901F06881782901F0A181002080
:1002000070471FB501F065FA01F044FD04000020BD
:1002100000210BF0E9FEE0601FBD10B510BD01F03C
:100220003DFE1146FFF7EDFF0AF08AFE01F05BFE8E
:1002300003B4FFF7F2FF03BC09F071FB0B49D1F8DF
:1002400000C04A685CF8043B1068184442F8040B8C
:100250008C4528BFA1F1DC0C8A4228BFA1F1DC0249
:10026000C1F800C04A6020F000407047846F002051
:1002700008480047FEE7FEE7FEE7FEE7FEE7FEE789
:10028000FEE7FEE7FEE7FEE703480449024A044BA7
:100290007047000031010008F06F0020F0FF0020DF
:1002A000F06F00202DE9F04F4FF0000C4FF00003ED
:1002B00001EB9C5EBEF90250BEF900400EF5806E67
:1002C000BEF90290BEF900800EF5806EBEF9027094
:1002D000BEF900600EF5806EBEF902B0BEF900A056
:1002E0000EF5806ED044D944A8EB4A0AA9EB4B0B1B
:1002F0004FEAA4044FEAA50504EBA60405EBA70505
:10030000A4EB6606A5EB670704EBA80405EBA905BB
:10031000A4EB6808A5EB690906EBAB06A7EBAA07F7
:10032000A6EB6B0B07EB6A0A458020F8044B47806D
:1003300020F8046BA0F8029020F8048BA0F802A02B
:1003400020F804BB03F1010393FAA3FCB3F5807F0B
:10035000AED1A0EB82014FF0100312090FF234105E
:1003600000F1000006B403EB430C6144A2F58032B7
:1003700002EB8332B1F90250B1F90040A1EB030165
:10038000B0F902B0B0F900A000F10400A5EB040E32
:100390000EFB0BFC0AEB4B0E05FB0ACB04FB0ECA53
:1003A000B1F90250B1F90040A1EB0301B0F902909C
:1003B000B0F9008000F10400A5EB040E0EFB09FC6F
:1003C00008EB490E05FB08C904FB0EC8B1F9025041
:1003D000B1F90040A1EB0301B0F90270B0F900607F
:1003E00000F10400A5EB040E0EFB07FC06EB470E24
:1003F00005FB06C704FB0EC6B1F90250B1F9004077
:1004000001F10001D044D944A8EB4A0AA9EB4B0BF7
:100410004FEAA4044FEAA50504EB264405EB274563
:10042000A4EBE636A5EBE73704EB284405EB2945BA
:10043000A4EBE838A5EBE93906EB2B46A7EB2A47F6
:10044000A6EBEB3B07EBEA3A4D800C8019444F805A
:100450000E801944A1F80290A1F800801944A1F877
:1004600002A021F804BBB2F5803283DA03EB430C1F
:100470006144A2F101025FEA024E18BFA0EB0C003A
:100480007FF476AF06BC4FEA830392087FF46AAF2D
:10049000BDE8F08F00400000004000000040000078
:1004A0005DDD213BA3227E180000412D7EA5412D5C
:1004B0000000412D00C000405DDD82E75DDD213B95
:1004C0007EA5412D004000000040000000400000DB
:1004D000AA2A94126B39460649327C0CA8118E2345
:1004E00049327C0CA3227E1821F77931AA2A941272
:1004F000A8118E235DDD213BA3227E180000412D33
:1005000095C6B13F461A2B1E58EE3735BEB4C53ED0
:10051000A8118E235DDD213B63A97138DF089A287D
:10052000B7CDC53E7EA5412D0000412D00C0004045
:1005300063A92B1E21F77931BEB4C53EBEB47C0C35
:1005400058EE373561AC213B95C6BAF9BAE571383A
:100550003BA737355DDD82E75DDD213B7EA5412D83
:1005600021F766D756D53F3D3BA78E23A811C9CAB0
:10057000B7CDC53E61AC7E18AA2AC1C295C6B13FAF
:10058000BEB47C0C004000000040000000400000B1
:100590001E3BB504693E9201C83C2403EB35640957
:1005A000C83C24036B3946066C30060E1E3BB5046E
:1005B000EB356409AA2A94126B39460649327C0C41
:1005C000AE240917AF37D607882E8D0F7E1E5D1B10
:1005D000EB356409AA2A941224188C1F1E34F10AE0
:1005E000B3269015A8118E2349327C0CA3227E18C5
:1005F000140B60276C30060E7E1E5D1B7104FB2AF7
:10060000882E8D0F461A2B1EC7FD5A2E9D2C1211B7
:10061000FE15E72021F77931AA2A9412A8118E231A
:1006200087F05334B2281314480D202602EAE53629
:10063000B3269015DF089A289CE32B39AE240917BE
:100640007104FB2A5DDD213BA3227E180000412DB1
:100650004ED7C53C9320EF198FFB6C2F78D1153EF8
:100660007E1E5D1B21F77931E2CB0F3F641CC61C57
:10067000B8F2683395C6B13F461A2B1E58EE37358F
:1006800097C1FB3F24188C1F02EAE536F0BCEC3F13
:10069000FE15E720BAE57138A6B8853FD5133D228F
:1006A00082E1DB39BEB4C53EA8118E235DDD213B5E
:1006B00040B1AF3D790FDA244DD9423C2EAE423CD9
:1006C000480D202656D53F3D8EAB823A140B60274D
:1006D00078D1153E63A97138DF089A28B7CDC53E99
:1006E000B1A71236A906CE2915CA4F3F78A668339E
:1006F0007104FB2A95C6B13FBCA576303902212C86
:1007000038C3EC3F7EA5412D0000412D00C00040C4
:10071000BCA5CE29C7FD5A2EF0BCEC3F78A62026FA
:100720008FFB6C2F09BAB13FB1A73D2257F9763044
:100730004DB74F3F63A92B1E21F77931BEB4C53E9B
:100740008EABEF19ECF474325EB2153E2EAE9015FE
:10075000B8F268332DB03F3D40B1121187F05334E9
:100760002EAE423CBEB47C0C58EE373561AC213B1A
:10077000A6B8D6072BEC1236C8AADB39F0BC240386
:1007800002EAE53663A9713897C16EFEDCE7B0373F
:1007900034A8E53695C6BAF9BAE571383BA73735BE
:1007A000E2CB0FF59CE32B3978A6683378D173F050
:1007B00082E1DB39EDA579314ED7EDEB6DDF823A81
:1007C00099A56C2F5DDD82E75DDD213B7EA5412D86
:1007D0009CE33AE352DBB63B99A5FB2A02EA19DF18
:1007E0004DD9423CEDA59A2887F026DB4ED7C53C73
:1007F00078A6202621F766D756D53F3D3BA78E2306
:10080000C7FDDFD363D3AF3D34A8E720710494D094
:1008100078D1153E63A92B1E140B8CCD94CF723E5C
:10082000C8AA5D1BA811C9CAB7CDC53E61AC7E1868
:10083000241850C8E2CB0F3F2EAE90157E1E25C661
:1008400015CA4F3F2DB09412AE244AC451C8853FFB
:100850005EB28D0FAA2AC1C295C6B13FBEB47C0C50
:100860006C308EC1E2C4D43F4DB76409EB35B1C0E2
:1008700038C3EC3F09BA46061E3B2CC097C1FB3F6C
:10088000F0BC2403004000000040000000400000D5
:10089000D03E2E019B3F6500363FC9009A3D5B026A
:1008A000363FC900693E92015F3C8803D03E2E016D
:1008B0009A3D5B021E3BB504693E9201C83C24038D
:1008C000D939E205023EF701F43BED038E380E07FD
:1008D0009A3D5B021E3BB5043F373908313DC002EB
:1008E000463A7E05EB356409C83C24036B3946065D
:1008F00092348E0A5F3C88038E380E073433B70B70
:10090000F43BED03AF37D607D231DF0C8A3B5104FD
:10091000CE369D086C30060E1E3BB504EB356409DF
:10092000022F2B0FB23A1A0505352B0A932D5010C2
:10093000463A7E051E34F10A212C7311D939E2059D
:100940003433B70BAA2A94126B39460649327C0C11
:100950003129B413FD38AA065B31410DB327D214F7
:100960008E380E076C30060E3226EE151F387207D1
:100970007B2FCA0EAE240917AF37D607882E8D0FEE
:10098000262321183F373908932D50109C21371901
:10099000CE369D089D2C12110E204B1A5D36010992
:1009A000A42BD3117E1E5D1BEB356409AA2A941279
:1009B000EB1C6C1C7835C709AF295413561B791DE5
:1009C00005352B0AB2281314BE19841E92348E0AE0
:1009D000B327D21424188C1F1E34F10AB3269015A5
:1009E00088169120A933540BB1254C16EA14932193
:1009F0003433B70BAE2409174A139222BF321A0CB4
:100A0000A923C417A8118E2349327C0CA3227E1877
:100A100005108824D231DF0C9C213719610E7E2508
:100A20005B31410D9320EF19BB0C7126E430A40D0E
:100A3000891FA71A140B60276C30060E7E1E5D1BE3
:100A40006D094C28F42F680E721D121CC40735293D
:100A50007B2FCA0E641CC61C1B061A2A022F2B0FE2
:100A6000561B791D7104FB2A882E8D0F461A2B1EEA
:100A7000C702D82B0E2EEE0F3519DC1E1C01B22C2E
:100A8000932D501024188C1F72FF882D182DB11033
:100A900011173A20C7FD5A2E9D2C1211FE15E72082
:100AA0001DFC282F212C7311EA14932173FAF22FC5
:100AB000A42BD311D5133D22CAF8B830282B3412F9
:100AC000BF12E72221F77931AA2A9412A8118E23A6
:100AD00079F536322D2AF41291103524D2F3EF3203
:100AE000AF295413790FDA242CF2A3333129B4132C
:100AF000610E7E2587F05334B2281314480D20264A
:100B0000E3EEFF34332873142E0CC12641EDA535D6
:100B1000B327D214140B6027A1EB483633273115C5
:100B2000FA09FE2702EAE536B3269015DF089A286F
:100B300065E87E373226EE15C4073529CBE6123834
:100B4000B1254C16A906CE2932E5A1382F25AB16C2
:100B50008D05652A9CE32B39AE2409177104FB2A05
:100B600008E2B0392B24661755038F2B77E0303A13
:100B7000A923C4173902212CE9DEAB3A2623211818
:100B80001C01B22C5DDD213BA3227E180000412D0B
:100B9000D5DB923B1F22DB18E4FECF2D4FDAFD3B65
:100BA0009C213719C7FD5A2ECDD8643C17219319C3
:100BB000ABFCE42E4ED7C53C9320EF198FFB6C2F76
:100BC000D3D5213D0E204B1A73FAF22F5CD4783D19
:100BD000891FA71A57F97630E8D2C93D041F021BB6
:100BE0003CF8F93078D1153E7E1E5D1B21F7793136
:100BF0000CD05C3EF81DB81B06F6F831A5CE9D3E24
:100C0000721D121CECF4743241CDD83EEB1C6C1CEE
:100C1000D2F3EF32E2CB0F3F641CC61CB8F268334C
:100C200088CA403FDD1B201D9FF1DF3332C96B3F77
:100C3000561B791D87F05334E1C7913FCE1AD31D5F
:100C40006FEFC63495C6B13F461A2B1E58EE3735A6
:100C50004EC5CC3FBE19841E41EDA5350CC4E13F05
:100C60003519DC1E2BEC1236CFC2F13FAD18341F04
:100C700016EB7D3697C1FB3F24188C1F02EAE53640
:100C800065C000409B17E31FEFE84B3738BFFF3FBD
:100C900011173A20DCE7B03711BEF83F88169120D3
:100CA000CBE61238F0BCEC3FFE15E720BAE5713810
:100CB000D4BBDB3F74153D21AAE4CF38BFBAC43F93
:100CC000EA1493219CE32B39AFB9A73F5F14E821C5
:100CD0008EE28439A6B8853FD5133D2282E1DB3907
:100CE000A2B75D3F4A13922277E0303AA5B6303F73
:100CF000BF12E7226DDF823AAFB5FD3E34123B23CF
:100D000064DED33ABEB4C53EA8118E235DDD213B1F
:100D1000D5B3883E1D11E22357DC6D3BF2B2453E50
:100D20009110352452DBB63B15B2FC3D05108824EA
:100D30004FDAFD3B40B1AF3D790FDA244DD9423C4B
:100D400071B05B3DED0E2C254DD8853CA9AF033D20
:100D5000610E7E254ED7C53CE8AEA53CD40DCF250F
:100D600051D6033D2EAE423C480D202656D53F3D80
:100D70007BADDA3BBB0C71265CD4783DD0AC6D3BCF
:100D80002E0CC12663D3AF3D2BACFA3AA10B112731
:100D90006DD2E33D8EAB823A140B602778D1153EBD
:100DA000F8AA063A870AAF2785D0453E6AAA843951
:100DB000FA09FE2794CF723EE3A9FD386D094C284D
:100DC000A5CE9D3E63A97138DF089A28B7CDC53EF0
:100DD000EBA8E1375208E728CCCCEB3E7BA84B3799
:100DE000C4073529E2CB0F3F12A8B1363607812957
:100DF000FBCA303FB1A71236A906CE2915CA4F3F0C
:100E000057A76E351B061A2A32C96B3F05A7C63491
:100E10008D05652A51C8853FBBA61934FF04B02A49
:100E200072C79C3F78A668337104FB2A95C6B13F10
:100E30003EA6B232E303452BBAC5C43F0BA6F83138
:100E400055038F2BE2C4D43FE0A53931C702D82B1C
:100E50000CC4E13FBCA576303902212C38C3EC3FED
:100E6000A1A5AF2FAA016A2C66C2F53F8DA5E42E7D
:100E70001C01B22C97C1FB3F81A5152E8E00FA2CC8
:100E8000CAC0FF3F7EA5412D0000412D00C000409B
:100E900081A56A2C72FF882D38BFFF3F8DA58F2B4F
:100EA000E4FECF2D73BEFB3FA1A5B02A56FE152E42
:100EB000B0BDF53FBCA5CE29C7FD5A2EF0BCEC3F16
:100EC000E0A5E72839FD9F2E32BCE13F0BA6FE27A7
:100ED000ABFCE42E77BBD43F3EA611271DFC282F88
:100EE000BFBAC43F78A620268FFB6C2F09BAB13F4A
:100EF000BBA62C2501FBAF2F56B99C3F05A7352477
:100F000073FAF22FA6B8853F57A73B23E5F9343093
:100F1000F8B76B3FB1A73D2257F976304DB74F3F39
:100F200012A83D21CAF8B830A5B6303F7BA83A20B8
:100F30003CF8F93000B60F3FEBA8341FAEF739315B
:100F40005EB5EB3E63A92B1E21F77931BEB4C53ED9
:100F5000E3A9201D93F6B93122B49D3E6AAA121C62
:100F600006F6F83188B3723EF8AA021B79F53632DC
:100F7000F2B2453E8EABEF19ECF474325EB2153E20
:100F80002BACDB185FF4B232CDB1E33DD0ACC4176B
:100F9000D2F3EF3240B1AF3D7BADAB1645F32C330E
:100FA000B5B0783D2EAE9015B8F268332DB03F3D08
:100FB000E8AE73142CF2A333A9AF033DA9AF5413C9
:100FC0009FF1DF3328AFC53C71B0341213F11934EF
:100FD000A9AE853C40B1121187F053342EAE423C8D
:100FE00015B2EE0FFBEF8D34B6ADFD3BF2B2CA0E7B
:100FF0006FEFC63441ADB63BD5B3A40DE3EEFF347D
:10100000D0AC6D3BBEB47C0C58EE373561AC213BA7
:10101000AFB5540BCCED6E35F6ABD33AA5B62B0A73
:1010200041EDA5358EAB823AA2B70109B6ECDC35AD
:1010300029AB303AA6B8D6072BEC1236C8AADB3952
:10104000AFB9AA06A1EB48366AAA8439BFBA7E05B1
:1010500016EB7D360FAA2B39D4BB51048CEAB1367E
:10106000B7A9CF38F0BC240302EAE53663A971388A
:1010700011BEF70178E9183712A9123838BFC90034
:10108000EFE84B37C5A8B03765C09BFF65E87E37F2
:101090007BA84B3797C16EFEDCE7B03734A8E53646
:1010A000CFC240FD53E7E137F1A77D360CC413FCF6
:1010B000CBE61238B1A712364EC5E6FA42E6423800
:1010C00074A7A53595C6BAF9BAE571383BA7373587
:1010D000E1C78EF832E5A13805A7C63432C963F7F7
:1010E000AAE4CF38D3A6533488CA39F623E4FD38AE
:1010F000A4A6DF33E2CB0FF59CE32B3978A6683347
:1011000041CDE6F315E3583950A6EF32A5CEBFF234
:101110008EE284392CA674320CD098F108E2B039F2
:101120000BA6F83178D173F082E1DB39EDA5793186
:10113000E8D24FEFFCE0063AD3A5F9305CD42DEEAF
:1011400077E0303ABCA57630D3D50CEDF2DF593AD2
:10115000A9A5F22F4ED7EDEB6DDF823A99A56C2F42
:10116000CDD8CFEAE9DEAB3A8DA5E42E4FDAB4E96B
:1011700064DED33A85A55A2ED5DB9AE8E1DDFA3A4A
:101180007FA5CF2D5DDD82E75DDD213B7EA5412D75
:10119000E9DE6DE6DADC473B7FA5B22C77E059E566
:1011A00057DC6D3B85A5212C08E248E4D5DB923B5A
:1011B0008DA58F2B9CE33AE352DBB63B99A5FB2A26
:1011C00032E52DE2D1DADA3BA9A5652ACBE624E1A6
:1011D0004FDAFD3BBCA5CE2965E81DE0CED9203C09
:1011E000D3A5352902EA19DF4DD9423CEDA59A284D
:1011F000A1EB18DECDD8643C0BA6FE2741ED19DD2E
:101200004DD8853C2CA66027E3EE1EDCCDD7A53C4F
:1012100050A6C12687F026DB4ED7C53C78A62026EF
:101220002CF231DACFD6E43CA4A67E25D2F33FD906
:1012300051D6033DD3A6DA2479F551D8D3D5213D33
:1012400005A7352421F766D756D53F3D3BA78E230A
:10125000CAF87FD6D8D45B3D74A7E72273FA9BD532
:101260005CD4783DB1A73D221DFCBBD4DFD3933DB8
:10127000F1A79321C7FDDFD363D3AF3D34A8E720A7
:1012800072FF06D3E8D2C93D7BA83A201C0131D2B7
:101290006DD2E33DC5A88C1FC70261D1F2D1FC3DE0
:1012A00012A9DC1E710494D078D1153E63A92B1EBF
:1012B0001B06CCCFFED02D3EB7A9791DC40707CFA2
:1012C00085D0453E0FAAC61C6D0947CE0CD05C3EAA
:1012D0006AAA121C140B8CCD94CF723EC8AA5D1B57
:1012E000BB0CD4CC1CCF883E29ABA71A610E21CCF5
:1012F000A5CE9D3E8EABEF19051073CB2ECEB13E21
:10130000F6AB3719A811C9CAB7CDC53E61AC7E1876
:101310004A1324CA41CDD83ED0ACC417EA1483C9BD
:10132000CCCCEB3E41AD09178816E8C857CCFD3E42
:10133000B6AD4C16241850C8E2CB0F3F2EAE901518
:10134000BE19BEC76ECB203FA9AED214561B31C703
:10135000FBCA303F28AF1314EB1CA8C688CA403F15
:10136000A9AF54137E1E25C615CA4F3F2DB0941247
:101370000E20A7C5A3C95D3FB5B0D3119C212DC5D3
:1013800032C96B3F40B112112623B9C4C1C8783F9E
:10139000CDB15010AE244AC451C8853F5EB28D0F06
:1013A0003226E0C3E1C7913FF2B2CA0EB3277BC336
:1013B00072C79C3F88B3060E31291CC303C7A73FE1
:1013C00022B4410DAA2AC1C295C6B13FBEB47C0C5D
:1013D000212C6DC227C6BB3F5EB5B70B932D1DC236
:1013E000BAC5C43F00B6F10A022FD3C14EC5CC3FE7
:1013F000A5B62B0A6C308EC1E2C4D43F4DB7640948
:10140000D2314FC176C4DB3FF8B79D08343315C1E4
:101410000CC4E13FA6B8D6079234E0C0A1C3E73FB1
:1014200056B90E07EB35B1C038C3EC3F09BA4606D2
:101430003F3788C0CFC2F13FBFBA7E058E3864C047
:1014400066C2F53F77BBB504D93945C0FEC1F83F48
:1014500032BCED031E3B2CC097C1FB3FF0BC240304
:101460005F3C19C030C1FD3FB0BD5B029A3D0BC06F
:10147000CAC0FF3F73BE9201D03E03C065C00040AA
:1014800038BFC900704700000FB4044910B503AA63
:10149000029800F0EDFB10BC5DF814FBFC1300207B
:1014A0000FB41CB5074B06AA7B446946009005980B
:1014B00000F0C5FB0020694600F0D4FB1CBC5DF8C1
:1014C00014FB0000B90700002DE9F0410646002496
:1014D00010687529314616A510D0AFF3008000289A
:1014E00002DA404213A507E031688A0701D512A548
:1014F00002E0490704D511A5012401E0AFF3008003
:1015000000210A2206F1240709E0B0FBF2FCB0FB3F
:10151000F2F302FB1C00303078541846491C0028B6
:10152000F3D123462A463046BDE8F04100F01BB90E
:10153000000000002D0000002B0000002000000033
:1015400070B504460D4621461068AFF3008021882F
:10155000090502D50F4A7A4402E00E4A7A440E3257
:10156000002104F1240305E000F00F060009965D58
:101570005E54491C0028F7D120780023000704D5C9
:10158000702D02D009B1022311322046BDE870400F
:1015900000F0E9B8264401002DE9F0474FF0000AB9
:1015A00089460446C0F820A02046E1688847002804
:1015B00076D0252806D0D4E901219047206A401C26
:1015C0002062F1E7E168204600258847C4F81CA0A6
:1015D00006460027C4F818A02A2E09D0304608F085
:1015E00097F938B304EB8708303EC8F8186019E063
:1015F00059F8041B204604EB87029161E168884793
:10160000012F064618D1E069002820DA25F02005D0
:101610001DE0D8F8180000EB800006EB40003038E1
:10162000C8F818002046E1688847064608F070F9B7
:101630000028EED1012F0AD02E2E08D12046E168D5
:1016400088477F1C0646022F45F02005C4DBA069B1
:10165000002803DA404245F00105A061E80701D007
:1016600025F01005B6B1A6F14100192802D82036A0
:1016700045F400654A463146204625604D46FEF752
:10168000B5FD58B1012806D0ED1D25F0070000F189
:10169000080989E704E005F1040985E730468AE78F
:1016A000206ABDE8F08700000B4910B5A1F17C026B
:1016B0000A4CC2E93712372106E000EB104342F82A
:1016C0002130074B00FB03400B1EA1F10101F4DCAC
:1016D00010BD0120E8E70000246F0020E119D66664
:1016E000CD0D010010B5203AC0F00B80B1E81850C4
:1016F000203AA0E81850B1E81850A0E81850BFF4FC
:10170000F5AF5FEA027C24BFB1E81850A0E818509A
:1017100044BF18C918C0BDE810405FEA827C24BFEE
:1017200051F8043B40F8043B08BF7047D20728BF7C
:1017300031F8023B48BF11F8012B28BF20F8023BCB
:1017400048BF00F8012B70477047704770477047DB
:1017500010B500F0A3FA006810BD10B5044600F003
:101760009DFA046010BD2DE9F0470D46994692465A
:10177000044600F124080168880604D5E06921F0D8
:101780001001216000E00120A84201DD471B00E0BC
:101790000027A1697A1902EB0900081AA0612078D4
:1017A000C00602D42046AFF30080002608E0D4E94A
:1017B00001211AF806009047206A401C761C20621E
:1017C0004E45F4DB2078C0060AD52046AFF30080F2
:1017D00006E0D4E9012130209047206A401C2062B5
:1017E000381EA7F10107F4DC07E0D4E9012118F85D
:1017F00005009047206A401C2062281EA5F10105C3
:10180000F3DC2046AFF300802078000602D50220EA
:10181000BDE8F0870120FBE770472DE9FF4F0C463C
:101820001E464FF0FF378BB0D2E90001DDF8608033
:101830000A908A46C1F30A5505B93D46002108467B
:101840004FF00000BAF1000F00F4400005DA00EBA1
:1018500080004FF4400101EA50004FEA9059B9F17D
:10186000010F00DDB9460A9850EA4A000ED044F64E
:101870001050A5F2FF3545432F14B8F1000F1ED0CC
:101880007542291E1EDDC9F100021CE0B8F1010FEE
:101890004FF0000001D0302103E0F24305E0215475
:1018A000401CB042FBDB30460022002121540B9942
:1018B000C1F80880C1E900200FB0BDE8F08FBD1B62
:1018C0006D1CDEE74A4600DA694206A800F070FAAD
:1018D00006AB93E8070003AB83E8070050460A997C
:1018E00000F04AFB8DE80700A0F500501F3800907B
:1018F0000398002D09DD42F21F014A46084403A95E
:101900000390684600F0A9FD08E0A0F500504A46A3
:101910001F3803A90390684600F0B3FD8DE8070067
:101920000004000C03D04FF0FF30410800E01046E7
:10193000B8F1000F03D00022009215461EE0751E7C
:1019400005D400F0AFF9303262556D1EF9D5B346BB
:101950000122084302D000227F1C04E020783028B6
:1019600001D100227F1E002A099786D01DE0112D8B
:1019700007DA00F097F9303262556D1C50EA010227
:10198000F5D1084302D00098C8B10EE00021681ECE
:1019900005E0235C625C63542254401E491C814272
:1019A000F7DBAB46A81B401E0990002004F80B0093
:1019B0000B98099AC0F80880C0E9002B7CE7112633
:1019C0004FF0000859E72DE9F04F88460446D21D34
:1019D00022F0070191B0D1E90001CDE90A0107F039
:1019E0000EFF02460B98C00F01D02D2007E02068A3
:1019F000810701D52B2002E0202101EAC000032A43
:101A0000099001D0072A05DB03464146204600F035
:101A10008FF90BE12078800601D5E06900E006200F
:101A2000B8F1650F814606D0B8F1660F18D0B8F14D
:101A3000670F70D131E00020B9F1110F009001DB88
:101A4000112301E009F101030AAA01A90CA8FFF77B
:101A5000E4FEDDE90C70002609F10105834647E04C
:101A600001204B4600904FF000470AAA01A90CA89C
:101A7000FFF7D3FEDDE90DB00C995D46002610B9E5
:101A800009F101000D18B9EB050003D4C0F1FF36D0
:101A900009F10105A5EB09002BE0B9F1010F01DA0D
:101AA0004FF001090020B9F1110F0090484601DD07
:101AB000112300E003460AAA01A90CA8FFF7ADFE16
:101AC000DDE90C704D4600268346207800070AD4D5
:101AD000AB4500DA5D4601A8012D04DD411911F87E
:101AE000011C302907D04F4502DA17F1040F04DA40
:101AF000012082460FE06D1EEEE7002F02DCED1B99
:101B00003E4403E0781CA84200DD7D1CB81B00F1B8
:101B1000010A4FF000472078000703D4AA4501DBF3
:101B20004FF0FF3A0021B7F1004F0DF143088DF857
:101B3000431024D002202B23002F01DA7F422D23D3
:101B40000A21021EA0F1010000DC5FB197FBF1FC4D
:101B500097FBF1F201FB1C7C17460CF1300C08F8E6
:101B600001CDEEE7A8F1010003702188090501D538
:101B7000452100E06521A0F1010800F8011C099849
:101B80000FA9A1EB0807FF1D00B10120411901EBCE
:101B9000EA70A1693844081A401EA0612078C00686
:101BA00002D42046AFF30080099828B1D4E901217E
:101BB0009047206A401C20622078C00622D520462B
:101BC000AFF300801EE0002E04DBB34502DD01A868
:101BD000805D00E03020D4E901219047206A401C5C
:101BE0002062761CAAF101005FEA000A0AD100F027
:101BF00051F8C0680168405CD4E901219047206A2F
:101C0000401C2062281EA5F10105DCDC07E0D4E9B8
:101C1000012118F8010B9047206A401C2062381EF1
:101C2000A7F10107F3DC2046AFF30080032011B0D9
:101C300043E6000001694A1C02610878704700B55C
:101C40008FB0CDE901310021059105497944CDE9F5
:101C5000031011466846FFF79FFC0FB000BD00005F
:101C6000E5FFFFFF0A6802F8010B0A6070470000F9
:101C7000074B70B50D467B44FFF7E1FF044628464D
:101C800000F004F910B14FF0FF3070BD204670BD78
:101C90007785000000487047AC6F0020004870470F
:101CA0008C6F002030B5B0F10A024FEA900E71F14E
:101CB00000034EEA817EB0EB0E0061EB91014FEA2A
:101CC000101E4EEA017E10EB0E0041EB11114FEA9F
:101CD000102E4EEA016E10EB0E0041EB11214FEA7F
:101CE000104E4EEA014E10EB0E0041EB1141401830
:101CF00041F100014FEAD00040EA41704FEAD101C2
:101D000010EB80054FEA810444EA907444EB01042F
:101D10006D1944EB0404521BA3414FF0000348BF6C
:101D20000A3200D530BD401C41F1000130BD000039
:101D30002DE9F0411F46044603260168072A01F4F5
:101D4000006004DB08B116A505E016A503E008B1A4
:101D500015A500E015A521F010002060A069C01EA7
:101D6000A0610FB1401EA0612046AFF300804FB1CB
:101D7000D4E9012138469047206A401C2062C01CEB
:101D8000206206E0206AFAE7D4E9012115F8010B88
:101D90009047761EF8D22046AFF30080BDE8F08170
:101DA0004E414E006E616E00494E4600696E6600FF
:101DB0002DE9F047814616468AB0334878440DC86D
:101DC0008DE80D0030487844801C03AC0DC884E8D1
:101DD0000D0041F69B300844372190FBF1F290FB57
:101DE000F1F5A5F1800501FB12041B3C02D564420C
:101DF000012000E00020DFF890A080460027FA4490
:101E0000AAF1BE0A0DE0E00709D03246684607EBAA
:101E100047010AEB810100F034FB8DE807006410F4
:101E20007F1C002CEFD1184F7F44AC3F18E0E8072F
:101E300014D007EB04100DF1180A90E80E008AE8A0
:101E40000E00C068F04201D198190890324606A9E8
:101E500003A800F016FB03AB83E807006D10641CB9
:101E6000002DE4D132466946B8F1000F03A802D034
:101E700000F0F3FA01E000F004FBC9E90001C9F841
:101E800008200AB0BDE8F087F43C0100007B00F0B8
:101E900080007047004870478C6F00207546FFF740
:101EA000F9FFAE4605006946534620F00700854617
:101EB00018B020B5FEF7E8F9BDE820404FF0000665
:101EC0004FF000074FF000084FF0000B21F0070122
:101ED000AC46ACE8C009ACE8C009ACE8C009ACE865
:101EE000C0098D46704710B50446AFF30080204608
:101EF000BDE81040FEF79CB94FF0013C50F8042BB0
:101F000051F8043B9A4221D1A2EB0C03934313EA0C
:101F1000CC1317D150F8042B51F8043B9A4215D139
:101F2000A2EB0C03934313EACC130BD150F8042B10
:101F300051F8043B9A4209D1A2EB0C03934313EAF4
:101F4000CC13DBD04FF00000704700BFD01A01BAAD
:101F5000B1FA81F101F0180122FA01F0CB40C1F190
:101F60002001DBB2C0B2C01A2CFA01F3D11A91439E
:101F700011EAC311E6D170475FEA400C08BF91F047
:101F8000000F4FEA8C234FEAC12243EA51514FEA36
:101F90001C5018BF00F5F0404FEA300018BF41F068
:101FA00000415FEA6C5C00F02980BCF1FF3F08BF94
:101FB00040F080407047130C06BF12044FF0100C25
:101FC0004FF0000C130E04BF12020CF1080C130F9B
:101FD00004BF12010CF1040C930F04BF92000CF12A
:101FE000020CD30F04BF52000CF1010C11464FF04C
:101FF0000002A0F11F00A0EB0C00704711F0004F91
:1020000008BF704731F000413FF4D5AF0B0C06BF5D
:1020100009044FF0100C4FF0000C0B0E04BF090226
:102020000CF1080C0B0F04BF09010CF1040C8B0F11
:1020300004BF89000CF1020CCB0F04BF49000CF166
:10204000010CCCF12003A0EB0C0022FA03F302FAFE
:102050000CF241EA030100F10100704720F07F4CCF
:1020600080EA030023F07F47ACEB070303F57C53C2
:1020700000F0004003F1FF032DE980494FEA154BC2
:1020800009B44FEA144325EA0B4E24EA03480FF241
:10209000042606EB132749083E785FEA320203FB69
:1020A0000667C7F5000707FB06F64FEA54374FEA05
:1020B000D64606F1020607FB066CCCF1005C4FEA3F
:1020C0001C472CEA074C07FB06F40CFB06F504EB57
:1020D00015464FEA961634BF00204FF000404FEAF5
:1020E000D13706FB07FC4FEA1C4C0CFB0BF7D21B4D
:1020F00003FB0CF761EB07010CFB0EF7B0EB07409D
:1021000072EB17420CFB08F734BFA2EB0742B2EBAD
:10211000074261EB17414FEA0C444FEA910706FB77
:1021200007FC4FEA1C4C0CFB0BF7B0EBC74072EB03
:10213000573203FB0CF734BFA2EBC742B2EBC742E6
:1021400061EB57310CFB0EF7B0EBC70072EB577227
:102150000CFB08F734BFA2EBC702B2EBC70261EB7E
:102160005771039F4FEA816141EA921104EBCC045D
:102170004FEAD1374FEA826206FB07FC42EA90122F
:102180004FEA80604FEA1C4C0CFB0BF7D21B03FBA1
:102190000CF761EB07010CFB0EF7B0EB074072EB9D
:1021A00017420CFB08F734BFA2EB0742B2EB074221
:1021B00061EB17414FEA8C554FEA910704EB9C24E1
:1021C00006FB07FC4FEA1C4C0CFB0BF7B0EBC740BF
:1021D00072EB573203FB0CF734BFA2EBC742B2EBF2
:1021E000C74261EB57310CFB0EF7B0EBC70072EB47
:1021F00057720CFB08F734BFA2EBC702B2EBC70261
:1022000061EB577115EB4C254FEA816141EA921160
:102210004FEA82624FEAD13742EA901206FB07FC8E
:1022200044F100044FEA80604FEA1C4C0CFB0BF7B2
:10223000D21B03FB0CF761EB07010CFB0EF7B0EBB5
:10224000074072EB17420CFB08F734BFA2EB0742C2
:10225000B2EB074261EB174115EB1C154FEA8131D8
:1022600041EA92414FEA823242EA90424FEA80309C
:102270004FEA0C7644F1000448EA03434EEA0B4867
:102280004FF0000EB2EB080C71EB030724BF62465F
:1022900039464EEB0E0E4FF0000B001852414941EB
:1022A0004BEB0B0BB2EB080C71EB03077BF1000B54
:1022B00024BF624639464EEB0E0E4FF0000B00185D
:1022C000524149414BEB0B0BB2EB080C71EB03078E
:1022D0007BF1000B24BF624639464EEB0E0E51EAED
:1022E000020718BF46F0010616EB0E7655F1000204
:1022F00054F1000103D5BDE88901BDE80088BDE8BF
:102300008901BDE80048B619524141EB0101A3F132
:102310000103704780807F7E7D7C7B7A7978777639
:1023200076757473727171706F6E6E6D6C6C6B6AB2
:102330006A69686867666665646463636261616050
:10234000605F5F5E5E5D5D5C5C5B5B5A5A595958CD
:102350005857575656555555545453535252525137
:10236000515050504F4F4F4E4E4D4D4D4C4C4C4B8D
:102370004B4B4A4A4A4949494848484747474746D4
:102380004646454545444444444343434342424210
:1023900042414141002B26D4770021D01CB54FEAA1
:1023A000370703B44FF010004FF010014FF000005A
:1023B0000FBCBDE810400BF1010BBBF1010F08BFD2
:1023C0005FEA170722BF12F1010211F101014FF07C
:1023D000004143F1000300F0004043EA0000704771
:1023E000F9D35708DAE746EA064613F1400F4FEAF9
:1023F00016461FDD13F1200FDFBF16430A460021EA
:1024000020335B42C8D0C3F1200746EA064602FAF1
:1024100007F74FEA164646EA0706C3F1200722FAF5
:1024200003F201FA07F721FA03F14FF0000342EA41
:102430000702B1E746EA020646EA06464FEA1646B2
:1024400046EA0106BCBF46EA0646360C4FF00003DA
:102450004FF000024FF000019EE72DE9C04893467F
:1024600030B491E8380007C831EA400C48BF34EA7C
:10247000430C03D5FFF7F2FDFFF78CFFF0BCBDE87E
:1024800000882DE9C048934630B491E8380007C869
:1024900010F0804F08BF13F0804F03D100F005F813
:1024A000FFF778FFF0BCBDE8008820F07F4780EAA6
:1024B000030023F07F4C07EB0C03A3F57C5300F0E3
:1024C0000040A3F1FE0392F0000F00F0B38095F0FE
:1024D000000F00F077802DE901494FEA11404FEAE3
:1024E000144621EA004800FB06FC24EA064708FBE4
:1024F00006F607FB08F800FB07F718EB06484CEB5D
:10250000164C4FEA124B18EB07484FEA15464CEBB6
:10251000174022EA0B4E0BFB06FC25EA06470EFB92
:1025200006F607FB0EFE0BFB07F71EEB064E4CEB09
:10253000164C4FF000061EEB074E4CEB174B18EBFA
:102540000B0840F1000018EB0E0B58EB000840F1AF
:1025500000008F1A4FF000013CBFC943661B14BF37
:10256000B5EB040C00213CBFC943F61B4FEA1744EE
:102570004EEA8E0E27EA04454FEA1C4704FB076229
:102580002CEA074C05FB07F70CFB05F604FB0CFCDB
:1025900016EB074642EB174216EB0C4642EB1C4289
:1025A0001BEB060658EB0202414146EA9E0601D5A6
:1025B000BDE80189B619524141EB0101A3F10103C4
:1025C000BDE801894FEA14454FEA114724EA054660
:1025D00021EA074C05FB07F406FB07F70CFB06F1A5
:1025E00005FB0CFC11EB074144EB17444FEA124783
:1025F00011EB0C4144EB1C4422EA074C05FB07F2AB
:1026000006FB07F70CFB06F605FB0CFC16EB074672
:1026100042EB174216EB0C4642EB1C456A1854F18C
:10262000000148BF7047B619524141EB0101A3F1C7
:102630000103704795F0000F37D04FEA11424FEA7F
:10264000144721EA024624EA074C02FB07F106FB85
:1026500007F70CFB06F402FB0CFC14EB074441EB00
:1026600017414FEA154714EB0C4441EB1C4125EA96
:10267000074C02FB07F506FB07F70CFB06F602FB0F
:102680000CFC16EB074645EB174516EB0C4645EBE5
:102690001C42121951F1000148BF7047B61952414E
:1026A00041EB0101A3F1010370474FEA14454FEAE2
:1026B000114724EA054621EA074C05FB07F106FB12
:1026C00007F70CFB06F24FF0000605FB0CFC12EBC3
:1026D000074241EB174112EB0C4251EB1C4148BF42
:1026E0007047921841EB0101A3F10103704710B547
:1026F00000F094FC10BD70B506460C46154608E087
:102700003046721C96B200F007F804F8010B681E00
:1027100085B2002DF4D170BD70B50446002600F0DE
:102720002FFD2546E11704EB11610912A02202EBEF
:102730004101C8B200F0F0FC00F06EFDE11704EBBF
:1027400011610912A4EB0121C8B200F0E5FC00F010
:1027500063FD00F015FDA12000F0DEFC00F05CFD43
:10276000002000F0A1FC064600F030FD304670BDB0
:1027700070B505460C46164606E02178284600F05E
:1027800009F8681C85B2641C301EA6F101018EB2E6
:10279000F3D170BD70B504460E4600F0F1FC25463D
:1027A000E11704EB11610912A02202EB4101C8B24A
:1027B00000F0B2FC00F030FDE11704EB11610912EA
:1027C000A4EB0121C8B200F0A7FC00F025FD3046C3
:1027D00000F0A2FC00F020FD00F0F8FC0A2007F059
:1027E00033FB70BD4C48806940F004004A49886161
:1027F0004A48006820F0F00048490860464880696F
:1028000040F40070444988610846C06840F4007094
:10281000C8600846C06820F40070C8600846406878
:1028200020F4404048600846406840F4004048605A
:102830003B4800683B490840394908600846006841
:1028400008600846006820F480700860081D006871
:1028500020F00200091D08600846006820F460208E
:1028600008600846006840F4602008600846006878
:1028700040F4801008600846006820F4006008609A
:102880000846006840F400000860254828300068C9
:1028900020F470002249283108600846006808606A
:1028A0001F480C30006820F003001D490C310860FF
:1028B0000846006840F038000860081F006820F4EF
:1028C000E010091F08600846006840F4E010086046
:1028D000081F006840F00100091F086008460068F2
:1028E00040F00800086000BF0D48001D006800F0BF
:1028F00008000028F8D10A48001D006840F00400D4
:102900000749091D086000BF0548001D006800F068
:1029100004000028F8D17047001002400008014070
:1029200004240140FFFFF0000A48806940F00800DD
:10293000084988610848006820F00F0006490860CF
:102940000846006840F00300086000200349086062
:102950007047000000100240040C0140A081214299
:1029600000BFFEE72DE9F047044620460AF040FB91
:1029700081460F4948460AF00DFA81464FF08B41D7
:1029800048460AF07DFB82460AF06AF907464FF096
:102990006632084B09F02CFC054609F03BFB8146EA
:1029A00048460AF0EDFA04490860BDE8F0870000E7
:1029B00000007A4466660A400874004070470000D0
:1029C00010B50A2007F040FA0948006858B90948CC
:1029D000007808B9012000E0002006490870064888
:1029E00000880649888504200549086010BD00005C
:1029F00008012342521300207613002000100040EB
:102A0000140401401CB50A2007F01EFA1A48006899
:102A100068BB1A480078012815D1194800884FF67C
:102A2000FE7108401649088000201449087015A05E
:102A300010210B46C822CDE9001040F213110820E6
:102A400005F00AF913E00E48008840F001000C4937
:102A500008800120094908700CA010210B46C822EB
:102A6000CDE9001040F21311082005F0F5F8082018
:102A7000084908601CBD00000C01234251130020CE
:102A80000004004053544F5020200000574F524B39
:102A900000000000140401407CB50A2007F0D4F9BE
:102AA00051480068002872D11F20504908805048C2
:102AB0000068401C4E490860084601684DA0FEF7BA
:102AC000E3FC4DA010210323C822CDE90010E8212A
:102AD00040F2091005F0C0F84548006801281CD1F3
:102AE000474848490860484848490860084600681F
:102AF0000AF0B6F8044622460B4645A14648FEF7C2
:102B0000CFFC454810210323C822CDE90010E8215D
:102B100040F2091005F0A0F856E035480068022898
:102B20001CD13E48374908603D483849086008468E
:102B300000680AF095F8044622460B4634A1364850
:102B4000FEF7AEFC344810210323C822CDE9001063
:102B5000E82140F2091005F07FF835E024480068CC
:102B6000032815D12F48274908602F4827490860B6
:102B7000084600680AF004FA04461020032322469F
:102B8000E821009040F2091005F01CF81CE026E056
:102B900017480068042817D124481A4908604FF0E4
:102BA0007E501A490860084600680AF0E9F90446B0
:102BB000102003232246E821009040F2091005F07E
:102BC00001F800200A4908604FF07E510D48006866
:102BD0000AF05EFB04460AF0D3F91549088010207C
:102BE000144908607CBD0000100123420414002039
:102BF00048130020256400002020202020202000F1
:102C000000401C4300130020CDCCCC400413002016
:102C1000252E3166000000000813002000409C4271
:102C2000CDCC4C41000020410000C84200007A4455
:102C30002C0400401404014010B500F01FFB0222D8
:102C40000021084600F028F801220221042000F0AB
:102C500023F801220321042000F01EF801220421A0
:102C6000084600F019F8022306220321184605F051
:102C7000F7FC022308221946184605F0F1FC02234E
:102C800009220121184605F0EBFC02230A2200214B
:102C9000184605F0E5FC10BD70B504460B46CE178E
:102CA00001EB9676C6F38700CE1701EB9676B61049
:102CB000A1EB8606B606350E1C4B9B6943F001035B
:102CC0001A4EB3614FEAB63353F820300F26AE40A8
:102CD000B343174E46F82030334653F8203004FAF9
:102CE00005F61E43124B43F82060124B1B68012669
:102CF0008E4033430F4E336002F0010343B10D4B5E
:102D00000C331B6801268E4033430A4E0C36336069
:102D100002F0020343B1074B08331E6801238B40C6
:102D20001E43044B08331E6070BD000000100240BB
:102D300008000140000401402DE9F04F8BB0002055
:102D40000A90079006904FF4806282498248FDF70E
:102D5000A9FA012462E0804931F8241008B20AF08F
:102D60002FF909907C4951F8241008140AF028F929
:102D700008904FF0894009990AF082F907464FF010
:102D80008E410AF007F805464FF0894008990AF08D
:102D900077F907464FF08E4109F0FCFF06463146B1
:102DA00030460AF06DF92946029028460AF068F983
:102DB0000190029909F080FF039009F051FFCDE9DD
:102DC000040109F07DF807460022644B09F010FA6F
:102DD000824609F01FF981465CB94FF08E414846A2
:102DE0000AF04EF907460AF0CBF85D4941F8240095
:102DF0000AE04FF08F4148460AF042F907460AF0D0
:102E0000BFF8574941F82400484607990AF004FAE8
:102E100002D2CDF81C900A94601C84B2B4F5007FF5
:102E200099DB5049504800680AF02AF9059009F0EA
:102E300017FF07463A460B4600204C4909F0D8F9DF
:102E4000824609F0E7F806904949474800680AF0C9
:102E500063F817D10A9809F0A3FBCDE9020106989F
:102E600009F0FEFE0746DDE9022309F0E9FB824690
:102E700000223A4B09F0BCF9CDE9040109F04CFB02
:102E80003C4908603848006809F0EAFE074600221D
:102E9000394B09F005FB18D10A9809F081FB074668
:102EA0008846069809F0DCFE82463A46434609F019
:102EB000C7FB0022294BCDE9020109F099F9CDE9C0
:102EC000040109F029FB2B4908602C4926480068B9
:102ED0000AF022F818D10A9809F062FB82468B4664
:102EE000069809F0BDFE074652465B4609F0A8FB6E
:102EF00000221A4BCDE9020109F07AF9CDE904016B
:102F000009F00AFB1B4908601748006809F0A8FE91
:102F1000074600221A4B09F0C3FA18D10A9809F0A3
:102F20003FFB82468B46069809F09AFE07465246BA
:102F30005B4609F085FB0022084BCDE9020109F050
:102F400057F9CDE9040109F0E7FA0A4908600BB026
:102F5000BDE8F08F38240020383400200000904075
:102F6000384400200000904200130020882A91413C
:102F700000007A4410130020008863400000C8421B
:102F80000088534001460F48006820F01F000D4A9A
:102F9000106010460068084310600A482C3800682A
:102FA00040F48000074A2C3A106000BF05483438CE
:102FB000006800F002000028F8D0024818300068CD
:102FC00080B270473424014000BFFEE710B50020F6
:102FD0000F4908600F48006820F070400D490860F4
:102FE0000846006840F04050086000200A49C1F8D7
:102FF0009C01022006F046FF0120054908600220DE
:1030000006F040FF00200449C1F8980110BD0000FF
:1030100098812142000C0140008021420C488069C7
:1030200040F008000A4988610A48006820F07F40A3
:10303000084908600846006840F04C5008600548A0
:103040000C30006840F0C00002490C310860704745
:1030500000100240000C014010B500200F4908602C
:103060000F48006820F070400D490860084600686D
:1030700040F04050086001200A49C1F89C0102203C
:1030800006F000FF012005490860022006F0FAFE64
:1030900000200449C1F8980110BD00009881214228
:1030A000000C01400080214270B5054600241748FD
:1030B000006820F07040154908600846006840F03C
:1030C00000400860002616E0002011490860022038
:1030D00006F0D8FE01200F49C1F898016006040EE1
:1030E0000B487C38006808B1601CC4B2012006F0AF
:1030F000C9FE701CC6B2082EE6DB15B9FFF7ACFF9F
:1031000001E0FFF763FF204670BD0000000C0140A6
:10311000988121420080214270B50446154800681C
:1031200020F07040134908600846006840F04050A5
:103130000860002010490860002517E0E0090E49EA
:10314000091D08606006040E022006F09BFE0120A7
:103150000A49C1F89801022006F094FE00200649B1
:103160000860022006F08EFE681CC5B2082DE5DB63
:1031700070BD0000000C0140988121420080214276
:1031800010B50F48006820F070400D4908600846EF
:10319000006840F04050086001200A4908600A4970
:1031A000C1F89801042006F06DFE00200549086072
:1031B000042006F067FE00200349C1F8980110BD05
:1031C000000C01409C8121420080214210B50F4833
:1031D000006820F070400D4908600846006840F023
:1031E0004050086000200A4908600A49C1F89C0163
:1031F000042006F047FE0120054908600549C1F892
:103200009C01042006F03EFE10BD0000000C0140B1
:10321000988121420080214210B5002414480068A2
:1032200020F07040124908600846006840F00040F5
:10323000086001200F49086006F024FE01200E49B5
:10324000C1F8980106F01EFE07E0601CC4B2FA2C1B
:1032500003DDFFF7BBFF012010BD06488038006882
:103260000028F2D10349091F086000BFF4E70000FD
:10327000000C01409C812142008021421548806958
:1032800040F00400134988610846806940F040001E
:1032900088611148006820F00F000F490860084657
:1032A000006840F0080008600C4800680C490840BD
:1032B0000A490860084600680A4908430749086047
:1032C00006480C30006840F01C0004490C310860CE
:1032D0007047000000100240000801400018014043
:1032E000FF00F0FF0088080010B5044614B101206B
:1032F000234908702248007858B32248006858B122
:103300002048001F006838B11E480838006818B10E
:103310001D48006801281CD10A2006F095FD0020F8
:10332000174908701748006808B9012010BD1548F2
:10333000001F006808B90220F8E712480838006842
:1033400008B90320F2E710480068012815D10420CD
:10335000ECE70C48006801280FD10A48001F0068FC
:1033600001280AD1074808380068012805D1064815
:10337000006810B90120024908700020D6E700005B
:103380000214002010012342000121422DE9F84FD0
:1033900007460D46182400200090AA462046E21752
:1033A00004EB5272D2102146E31704EB5373DB1087
:1033B000A4EBC3030BB1012300E000231A446243D2
:1033C00002F0FF0B00263FE00A9800EBC000204906
:1033D00001EBC00010F806804FF000092EE008F065
:1033E000800030B11B4802882946384600F0B6F903
:1033F00007E0009828B94FF6FF722946384600F0DA
:10340000ADF94FEA48604FEA1068681C85B212486F
:103410004088A84201DCBDE8F88FA5EB0A00A04275
:1034200008D15546781C87B20B480088B84200DCAA
:10343000F1E706E009F1010000F0FF09B9F1080F1A
:10344000CDDB00BF701CC6B25E45BDDB00BFE2E74E
:103450000E2E010804140020586E002070B504469A
:10346000002617480588408845431548808846F659
:103470000401884216D112488079012812D1002017
:103480000F4988712A2048812B2088810021084615
:1034900004F092F801200A4988712B2048812A20E3
:1034A000888103E00021084604F086F804F0B4FDAA
:1034B000002602E003480480761CAE42FAD370BDB9
:1034C000586E00200008006C10B50446002C66D130
:1034D0006C498871F02008804FF4A070488008463D
:1034E000808849F2413188420BD06648808846F690
:1034F0000401884205D06348808845F21031884233
:103500001AD12C205F4908812A2048812B208881EC
:103510000846808846F60401884205D059488088CC
:1035200045F21031884206D14FF4A0705549088009
:103530004FF4F0704880A1E05248808845F2105165
:10354000884210D14FF430504E4908814FF4285032
:1035500048814FF42C5088814FF4F07008804FF46C
:10356000487048808AE04748808841F66311884265
:103570000DD12C20434908812B2048812A208881A5
:103580004FF4F07008804FF44870488076E02220B5
:103590003C49088120204881212088816EE001205B
:1035A000384988714FF4A0700880F02048800846A0
:1035B000808849F24131884205D03248808845F2FE
:1035C0001031884207D12C202E4908812A204881B9
:1035D0002B2088813FE02B48808846F604018842F2
:1035E00007D12C20274908812B2048812A20888157
:1035F00031E02448808845F21051884210D14FF4C0
:103600003050204908814FF4285048814FF42C5005
:1036100088814FF4487008804FF4F07048801AE0B9
:103620001848808841F6631188420DD12C20154935
:1036300008812A2048812B2088814FF44870088017
:103640004FF4F070488006E022200E4908812120C6
:103650004881202088810B48808846F604018842F2
:1036600005D00848808845F21031884206D14FF4D1
:10367000F070044908804FF4A0704880002003F0E7
:1036800025FE10BD586E00202DE9FF4F84B0814605
:103690008A460020039002900698A0EB090507983F
:1036A000A0EB0A06CDF80490CDF800A0002D01DDB6
:1036B000012705E00DB9002702E04FF0FF376D420A
:1036C000002E02DD4FF0010806E016B94FF00008A9
:1036D00002E04FF0FF387642B54201DD2C4600E0B3
:1036E00034464FF0000B21E0009A91B2019A90B25B
:1036F00000F022F803982844039002983044029086
:103700000398A04205DD0398001B039001983844FC
:1037100001900298A04205DD0298001B02900098DB
:10372000404400900BF101001FFA80FB601C8345B0
:10373000DADD08B0BDE8F08F30B504460D46294605
:10374000204603F039FF04F067FC02480088024974
:10375000088030BD041400200008006C30B503461A
:103760000C4615465A48808849F24131884205D0B6
:103770005748808845F21031884214D1544948890D
:1037800004F044FC181204F03BFCD8B204F038FCFE
:103790004F49888904F03AFC201204F031FCE0B271
:1037A00004F02EFC8CE04A48808845F21051884293
:1037B00020D14749488904F029FC181204F020FC64
:1037C00043494989491C88B204F020FCD8B204F06E
:1037D00017FC3F49888904F019FC201204F010FC02
:1037E0003B498989491C88B204F010FCE0B204F01E
:1037F00007FC65E03648808841F66311884228D18D
:103800003348807920B932480088401EC01A83B2FC
:103810002F49488904F0FAFB181204F0F1FBD8B2E2
:1038200004F0EEFB181204F0EBFBD8B204F0E8FB56
:103830002749888904F0EAFB201204F0E1FBE0B29A
:1038400004F0DEFB201204F0DBFBE0B204F0D8FB56
:1038500036E01F48808846F6040188421DD11C4886
:103860008079012804D11A480088401EC01A83B20A
:103870001749488904F0CAFB181204F0C1FBD8B2FA
:1038800004F0BEFB1249888904F0C0FB201204F04A
:10389000B7FBE0B204F0B4FB12E00D4880790128D8
:1038A00004D10B480088401EC01A83B208494889D9
:1038B000194604F0BBFB06498889214604F0B6FB93
:1038C0000348008903490880881C058030BD00003A
:1038D000586E0020FE07006C2DE9FC4F05460E4691
:1038E00017469846DDF82C900020019027488088E4
:1038F00046F60401884229D124488079012825D13F
:10390000AB46354621480088C01B401E86B247465C
:103910001E480088A0EB0B00401E1FFA80F8002014
:103920001A4988712A2048812B20888143463A46CB
:1039300031462846CDF80090FFF7CEFF012013490D
:1039400088712B2048812A2088811CE0781B401C2C
:1039500080B20190344614E02146284603F02CFE44
:1039600004F05AFB4FF0000A06E00948A0F8009066
:103970000AF101001FFA80FA01988245F5DB601C0C
:1039800084B24445E8DDBDE8FC8F0000586E00209D
:103990000008006C10B5FD48406940F48070FB4998
:1039A00048610846806940F00800886108468069DF
:1039B00040F0200088610846806940F0400088613E
:1039C0000846806940F480708861F148006820F002
:1039D0000F00EF4908600846006840F003000860E7
:1039E000EC480068EC490840EA490860084600686D
:1039F000EA490843E7490860081F006800F0FF2013
:103A0000091F08600846006840F0BB100860E448E1
:103A100000680020E24908600846006840F0BB30BA
:103A20000860081F006820F07040091F0860084601
:103A3000006840F030400860DA48406820F47020A8
:103A4000D84948600846406840F43020486008463D
:103A5000006820F00F0008600846006840F00B0086
:103A6000086000204FF020418861C861CE4908609D
:103A70004FF02040806940F480504FF02041886131
:103A80000846806940F4804088610846806940F0BB
:103A9000100088610846C069C8610846C06940F0E6
:103AA0000100C8610846C06940F47060C861BE4842
:103AB0000068C1F81C01BC480068C1F81C01084638
:103AC000D0F81C0140F44070C1F81C010846806920
:103AD00040F001008861322006F0B6F9002003F0C2
:103AE000BFFBB249888008468088FF280ADB084669
:103AF00080884FF6FF71884204D0AC488088B0F5CA
:103B0000134F7CD1D32004F081FA03F09FFBA74927
:103B1000888003F09BFBA549888003F097FBA349AD
:103B20008880084680884FF6FF7101EA00209F498F
:103B3000888003F08BFB9D49898808439B498880D6
:103B40000846808849F24131884258D0BF2004F0AD
:103B50005DFA03F07BFB9549888003F077FB93497E
:103B6000888003F073FB9149888003F06FFB8F49D5
:103B70008880084680884FF6FF7101EA00208B4953
:103B8000888003F063FB89498988084387498880D6
:103B90000846808846F6040188427AD0D42004F092
:103BA00035FA03F053FB8149888003F04FFB7F49CE
:103BB000888003F04BFB7D498880084680884FF65B
:103BC000FF7101EA00207949888003F03FFB7749C3
:103BD00089880843754988800846808845F21031F5
:103BE000884256D04FF45A4004F010FA03F02EFBEE
:103BF0006E4988804FF45B4004F008FA00E048E02A
:103C000003F024FB69498880084680884FF6FF71DD
:103C100001EA0020654988804FF45C4004F0F6F921
:103C200003F014FB6149898808436049888008468D
:103C30008088B0F5004F02D145F2105088805B4873
:103C4000808845F21051884223D0A12004F0DEF98B
:103C500003F0FCFA5549888003F0F8FA534988804C
:103C6000084680884FF6FF7101EA00204F4988809E
:103C700003F0ECFA4D49898808434C49888008468E
:103C8000808845F26171884203D141F6631047494B
:103C900088804648818846A0FDF7F6FB4348808827
:103CA00049F24131884270D1CF2004F0AFF90020B1
:103CB00004F0A6F9C12004F0A3F9302004F0A0F923
:103CC000ED2004F0A3F9642004F09AF9032004F035
:103CD00097F9122004F094F9812004F091F9E8207A
:103CE00004F094F9852004F08BF9102004F088F991
:103CF0007A2004F085F9CB2004F088F9392004F00B
:103D00007FF92C2004F07CF9002004F079F93420AC
:103D100004F076F9022004F073F9F72004F076F944
:103D2000202004F06DF9EA2004F070F9002004F07E
:103D300067F9002004F064F9C02004F067F91B2043
:103D400004F05EF9C12004F061F9012004F058F993
:103D5000C52004F05BF9302004F052F9302004F063
:103D60004FF9C72004F052F9B72004F049F9362082
:103D700004F04CF9482004F043F93A2004F046F9E5
:103D8000552004F03DF9B1201AE0BFE000100240D8
:103D9000000C01400414014000F0FF00BB0B00BB0D
:103DA00004180140002001401C0100A0586E0020B2
:103DB000204C43442049443A25780D0A0000000075
:103DC00004F024F9002004F01BF91A2004F018F97B
:103DD000B62004F01BF90A2004F012F9A22004F026
:103DE0000FF9F22004F012F9002004F009F926205E
:103DF00004F00CF9012004F003F9E02004F006F9C6
:103E00000F2004F0FDF82A2004F0FAF8282004F02E
:103E1000F7F8082004F0F4F80E2004F0F1F8082078
:103E200004F0EEF8542004F0EBF8A92004F0E8F8D0
:103E3000432004F0E5F80A2004F0E2F80F2004F033
:103E4000DFF8002004F0DCF8002004F0D9F80020AE
:103E500004F0D6F8002004F0D3F8E12004F0D6F8FE
:103E6000002004F0CDF8152004F0CAF8172004F063
:103E7000C7F8072004F0C4F8112004F0C1F80620A8
:103E800004F0BEF82B2004F0BBF8562004F0B8F87C
:103E90003C2004F0B5F8052004F0B2F8102004F03E
:103EA000AFF80F2004F0ACF83F2004F0A9F83F2051
:103EB00004F0A6F80F2004F0A3F82B2004F0A6F8D5
:103EC000002004F09DF8002004F09AF8012004F08E
:103ED00097F83F2004F094F82A2004F097F8002087
:103EE00004F08EF8002004F08BF8002004F088F82D
:103EF000EF2004F085F8112004F088F8782005F010
:103F0000A3FF292004F082F803F01DB9FE48808841
:103F100046F6040188427CD1112004F077F8142081
:103F200005F092FFD02004F071F8072004F068F843
:103F3000422004F065F81D2004F062F8D12004F05E
:103F400065F8002004F05CF81A2004F059F8092004
:103F500004F056F8D22004F059F8012004F050F88B
:103F6000222004F04DF8C02004F050F8102004F096
:103F700047F83B2004F044F8002004F041F8022008
:103F800004F03EF8112004F03BF8C52004F03EF8A0
:103F9000032004F035F8C82004F038F8002004F0BD
:103FA0002FF8252004F02CF8212004F029F8052012
:103FB00004F026F8002004F023F80A2004F020F88A
:103FC000652004F01DF8252004F01AF8772004F08D
:103FD00017F8502004F014F80F2004F011F8002016
:103FE00004F00EF8F82004F011F8012004F008F8AD
:103FF000FE2004F00BF8002004F002F8022003F089
:10400000FFFF202004F002F8362003F0FFFF082015
:1040100000E02CE003F0F4FF3A2003F0F7FF552016
:1040200003F0EEFF2B2003F0F1FF002003F0E8FF88
:10403000002003F0E5FF012003F0E2FF3F2003F042
:10404000DFFF2A2003F0E2FF002003F0D9FF002069
:1040500003F0D6FF012003F0D3FFDF2003F0D0FFF1
:10406000782005F0F1FE292003F0D0FF4CE7A648A8
:10407000808845F21031884240F07C87ED2003F0C3
:10408000C5FF012003F0BCFFFE2003F0B9FFEE20C6
:1040900003F0BCFFDE2003F0B3FF212003F0B0FFEC
:1040A000F12003F0B3FF012003F0AAFFDF2003F0AB
:1040B000ADFF102003F0A4FFC42003F0A7FF8F2062
:1040C00003F09EFFC62003F0A1FF002003F098FF3D
:1040D000E22003F095FFE22003F092FFE22003F0DC
:1040E0008FFFBF2003F092FFAA2003F089FFB020CA
:1040F00003F08CFF0D2003F083FF002003F080FF0E
:104100000D2003F07DFF002003F07AFF112003F063
:1041100077FF002003F074FF192003F071FF0020E7
:1041200003F06EFF212003F06BFF002003F068FF17
:104130002D2003F065FF002003F062FF3D2003F017
:104140005FFF002003F05CFF5D2003F059FF0020BB
:1041500003F056FF5D2003F053FF002003F050FFF3
:10416000B12003F053FF802003F04AFF002003F04A
:1041700047FF8B2003F044FF002003F041FF96200F
:1041800003F03EFF002003F03BFFB22003F03EFFB0
:10419000002003F035FF002003F032FF022003F07F
:1041A0002FFF002003F02CFF032003F029FF002045
:1041B00003F026FFB32003F029FF002003F020FFC7
:1041C000002003F01DFF002003F01AFF002003F081
:1041D00017FF002003F014FF002003F011FF002060
:1041E00003F00EFF002003F00BFF002003F008FF98
:1041F000002003F005FF002003F002FF002003F081
:10420000FFFE002003F0FCFE002003F0F9FE00207A
:1042100003F0F6FE002003F0F3FE002003F0F0FEB2
:10422000002003F0EDFE002003F0EAFE002003F082
:10423000E7FE002003F0E4FE002003F0E1FE002092
:1042400003F0DEFE002003F0DBFEB42003F0DEFE10
:104250008B2003F0D5FE002003F0D2FE962003F061
:10426000CFFE002003F0CCFEA12003F0C9FE002009
:1042700003F0C6FEB52003F0C9FE022003F0C0FE25
:10428000002003F0BDFE032003F0BAFE002003F07F
:10429000B7FE042003F0B4FE002003F0B1FEB62008
:1042A00003F0B4FE002003F0ABFE002003F0A8FEF4
:1042B000B72003F0ABFE002003F0A2FE002003F0C5
:1042C0009FFE3F2003F09CFE002003F099FE5E203D
:1042D00003F096FE002003F093FE642003F090FEAE
:1042E000002003F08DFE8C2003F08AFE002003F0F6
:1042F00087FEAC2003F084FE002003F081FEDC206A
:1043000003F07EFE002001E0586E002003F078FEEE
:10431000702003F075FE002003F072FE902003F081
:104320006FFE002003F06CFEEB2003F069FE00201E
:1043300003F066FEDC2003F063FE002003F060FE65
:10434000B82003F063FE002003F05AFE002003F0C3
:1043500057FE002003F054FE002003F051FE002021
:1043600003F04EFE002003F04BFE002003F048FE59
:10437000002003F045FEBA2003F048FE242003F09D
:104380003FFE002003F03CFE002003F039FE002039
:1043900003F036FEC12003F039FE202003F030FE8A
:1043A000002003F02DFE542003F02AFE002003F02D
:1043B00027FEFF2003F024FE002003F021FEC22090
:1043C00003F024FE0A2003F01BFE002003F018FE79
:1043D000042003F015FE002003F012FEC32003F0BA
:1043E00015FE3C2003F00CFE002003F009FE3A20ED
:1043F00003F006FE002003F003FE392003F000FE68
:10440000002003F0FDFD372003F0FAFD002003F04B
:10441000F7FD3C2003F0F4FD002003F0F1FD362011
:1044200003F0EEFD002003F0EBFD322003F0E8FD89
:10443000002003F0E5FD2F2003F0E2FD002003F053
:10444000DFFD2C2003F0DCFD002003F0D9FD292046
:1044500003F0D6FD002003F0D3FD262003F0D0FDAD
:10446000002003F0CDFD242003F0CAFD002003F05E
:10447000C7FD242003F0C4FD002003F0C1FD23206C
:1044800003F0BEFD002003F0BBFD3C2003F0B8FDAF
:10449000002003F0B5FD362003F0B2FD002003F04C
:1044A000AFFD322003F0ACFD002003F0A9FD2F206A
:1044B00003F0A6FD002003F0A3FD2C2003F0A0FDD7
:1044C000002003F09DFD292003F09AFD002003F059
:1044D00097FD262003F094FD002003F091FD242099
:1044E00003F08EFD002003F08BFD242003F088FDF7
:1044F000002003F085FD232003F082FD002003F05F
:104500007FFDC42003F082FD622003F079FD0020CE
:1045100003F076FD052003F073FD002003F070FD2D
:10452000842003F06DFD002003F06AFDF02003F00D
:1045300067FD002003F064FD182003F061FD0020FA
:1045400003F05EFDA42003F05BFD002003F058FDA6
:10455000182003F055FD002003F052FD502003F019
:104560004FFD002003F04CFD0C2003F049FD00201E
:1045700003F046FD172003F043FD002003F040FD4B
:10458000952003F03DFD002003F03AFDF32003F0F9
:1045900037FD002003F034FDE62003F031FD00205C
:1045A00003F02EFDC52003F031FD322003F028FD7D
:1045B000002003F025FD442003F022FD002003F03D
:1045C0001FFD652003F01CFD002003F019FD76207F
:1045D00003F016FD002003F013FD882003F010FD0A
:1045E000002003F00DFDC62003F010FD202003F095
:1045F00007FD002003F004FD172003F001FD00205B
:1046000003F0FEFC012003F0FBFC002003F0F8FCAB
:10461000C72003F0FBFC002003F0F2FC002003F0B5
:10462000EFFC002003F0ECFC002003F0E9FCC820C4
:1046300003F0ECFC002003F0E3FC002003F0E0FCBE
:10464000002003F0DDFC002003F0DAFCC92003F0B9
:10465000DDFC002003F0D4FC002003F0D1FC00209E
:1046600003F0CEFC002003F0CBFC002003F0C8FCDC
:10467000002003F0C5FC002003F0C2FC002003F082
:10468000BFFC002003F0BCFC002003F0B9FC0020BC
:1046900003F0B6FC002003F0B3FC002003F0B0FCF4
:1046A000002003F0ADFC002003F0AAFC002003F082
:1046B000A7FCE02003F0AAFC162003F0A1FC0020D8
:1046C00003F09EFC1C2003F09BFC002003F098FCF0
:1046D000212003F095FC002003F092FC362003F02B
:1046E0008FFC002003F08CFC462003F089FC0020A6
:1046F00003F086FC522003F083FC002003F080FCD2
:10470000642003F07DFC002003F07AFC7A2003F0A3
:1047100077FC002003F074FC8B2003F071FC002078
:1047200003F06EFC992003F06BFC002003F068FCA2
:10473000A82003F065FC002003F062FCB92003F020
:104740005FFC002003F05CFCC42003F059FC002057
:1047500003F056FCCA2003F053FC002003F050FC89
:10476000D22003F04DFC002003F04AFCD92003F0D6
:1047700047FC002003F044FCE02003F041FC002053
:1047800003F03EFCF32003F03BFC002003F038FC78
:10479000E12003F03BFC162003F032FC002003F084
:1047A0002FFC1C2003F02CFC002003F029FC22200D
:1047B00003F026FC002003F023FC362003F020FC4D
:1047C000002003F01DFC452003F01AFC002003F03C
:1047D00017FC522003F014FC002003F011FC6420AD
:1047E00003F00EFC002003F00BFC7A2003F008FC21
:1047F000002003F005FC8B2003F002FC002003F0F6
:10480000FFFB992003F0FCFB002003F0F9FBA8203C
:1048100003F0F6FB002003F0F3FBB92003F0F0FBFC
:10482000002003F0EDFBC42003F0EAFB002003F0BE
:10483000E7FBCA2003F0E4FB002003F0E1FBD220F9
:1048400003F0DEFB002003F0DBFBD82003F0D8FBF5
:10485000002003F0D5FBE02003F0D2FB002003F0A2
:10486000CFFBF32003F0CCFB002003F0C9FBE220D8
:1048700003F0CCFB052003F0C3FB002003F0C0FBDA
:104880000B2003F0BDFB002003F0BAFB1B2003F05C
:10489000B7FB002003F0B4FB342003F0B1FB002091
:1048A00003F0AEFB442003F0ABFB002003F0A8FBB9
:1048B0004F2003F0A5FB002003F0A2FB612003F0D2
:1048C0009FFB002003F09CFB792003F099FB002064
:1048D00003F096FB882003F093FB002003F090FB8D
:1048E000972003F08DFB002003F08AFBA62003F045
:1048F00087FB002003F084FBB72003F081FB00203E
:1049000003F07EFBC22003F07BFB002003F078FB6A
:10491000C72003F075FB002003F072FBD12003F0E9
:104920006FFB002003F06CFBD62003F069FB002036
:1049300003F066FBDD2003F063FB002003F060FB67
:10494000F32003F05DFB002003F05AFBE32003F0AB
:104950005DFB052003F054FB002003F051FB0A200F
:1049600003F04EFB002003F04BFB1C2003F048FB40
:10497000002003F045FB332003F042FB002003F04E
:104980003FFB442003F03CFB002003F039FB5020A8
:1049900003F036FB002003F033FB622003F030FB12
:1049A000002003F02DFB782003F02AFB002003F009
:1049B00027FB882003F024FB002003F021FB972035
:1049C00003F01EFB002003F01BFBA62003F018FBE6
:1049D000002003F015FBB72003F012FB002003F0CA
:1049E0000FFBC22003F00CFB002003F009FBC720E3
:1049F00003F006FB002003F003FBD12003F000FBD3
:104A0000002003F0FDFAD52003F0FAFA002003F0AD
:104A1000F7FADD2003F0F4FA002003F0F1FAF320B6
:104A200003F0EEFA002003F0EBFAE42003F0EEFAD4
:104A3000012003F0E5FA002003F0E2FA012003F080
:104A4000DFFA002003F0DCFA022003F0D9FA00209C
:104A500003F0D6FA2A2003F0D3FA002003F0D0FAAC
:104A60003C2003F0CDFA002003F0CAFA4B2003F0FB
:104A7000C7FA002003F0C4FA5D2003F0C1FA002059
:104A800003F0BEFA742003F0BBFA002003F0B8FA7A
:104A9000842003F0B5FA002003F0B2FA932003F06B
:104AA000AFFA002003F0ACFAA22003F0A9FA00202C
:104AB00003F0A6FAB32003F0A3FA002003F0A0FA53
:104AC000BE2003F09DFA002003F09AFAC42003F000
:104AD00097FA002003F094FACD2003F091FA002019
:104AE00003F08EFAD32003F08BFA002003F088FA4B
:104AF000DD2003F085FA002003F082FAF32003F0B2
:104B00007FFA002003F07CFAE52003F07FFA002012
:104B100003F076FA002003F073FA002003F070FA35
:104B2000002003F06DFA022003F06AFA002003F07F
:104B300067FA292003F064FA002003F061FA3C20B0
:104B400003F05EFA002003F05BFA4B2003F058FA02
:104B5000002003F055FA5D2003F052FA002003F024
:104B60004FFA742003F04CFA002003F049FA842035
:104B700003F046FA002003F043FA932003F040FAD2
:104B8000002003F03DFAA22003F03AFA002003F0DF
:104B900037FAB32003F034FA002003F031FABE20D4
:104BA00003F02EFA002003F02BFAC42003F028FAB9
:104BB000002003F025FACD2003F022FA002003F0B4
:104BC0001FFAD32003F01CFA002003F019FADC20AE
:104BD00003F016FA002003F013FAF32003F010FAA2
:104BE000002003F00DFAE62003F010FA112003F084
:104BF00007FA002003F004FA342003F001FA002041
:104C000003F0FEF9562003F0FBF9002003F0F8F959
:104C1000762003F0F5F9002003F0F2F9772003F095
:104C2000EFF9002003F0ECF9662003F0E9F9002029
:104C300003F0E6F9882003F0E3F9002003F0E0F93F
:104C4000992003F0DDF9002003F0DAF9BB2003F02E
:104C5000D7F9002003F0D4F9992003F0D1F900200E
:104C600003F0CEF9662003F0CBF9002003F0C8F979
:104C7000552003F0C5F9002003F0C2F9552003F0D8
:104C8000BFF9002003F0BCF9452003F0B9F900207A
:104C900003F0B6F9432003F0B3F9002003F0B0F9B4
:104CA000442003F0ADF9002003F0AAF9E72003F057
:104CB000ADF9322003F0A4F9002003F0A1F955204A
:104CC00003F09EF9002003F09BF9762003F098F999
:104CD000002003F095F9662003F092F9002003F01C
:104CE0008FF9672003F08CF9002003F089F9672021
:104CF00003F086F9002003F083F9872003F080F9A0
:104D0000002003F07DF9992003F07AF9002003F0E8
:104D100077F9BB2003F074F9002003F071F99920B2
:104D200003F06EF9002003F06BF9772003F068F9C7
:104D3000002003F065F9442003F062F9002003F03D
:104D40005FF9562003F05CF9002003F059F92320A5
:104D500003F056F9002003F053F9332003F050F923
:104D6000002003F04DF9452003F04AF9002003F03C
:104D700047F9E82003F04AF9002003F041F9002048
:104D800003F03EF9992003F03BF9002003F038F9D5
:104D9000872003F035F9002003F032F9882003F072
:104DA0002FF9002003F02CF9772003F029F90020D7
:104DB00003F026F9662003F023F9002003F020F920
:104DC000882003F01DF9002003F01AF9AA2003F04F
:104DD00017F9002003F014F9BB2003F011F90020AB
:104DE00003F00EF9992003F00BF9002003F008F905
:104DF000662003F005F9002003F002F9552003F0C6
:104E0000FFF8002003F0FCF8552003F0F9F800202B
:104E100003F0F6F8442003F0F3F8002003F0F0F874
:104E2000442003F0EDF8002003F0EAF8552003F0E9
:104E3000E7F8002003F0E4F8E92003F0E7F8AA20FF
:104E400003F0DEF8002003F0DBF8002003F0D8F8D0
:104E5000002003F0D5F8002003F0D8F8AA2003F0D2
:104E6000CFF8CF2003F0D2F8002003F0C9F80020DB
:104E700003F0C6F8002003F0C3F8002003F0C0F8E8
:104E8000002003F0BDF8002003F0BAF8002003F082
:104E9000B7F8002003F0B4F8002003F0B1F80020C8
:104EA00003F0AEF8002003F0ABF8002003F0A8F800
:104EB000002003F0A5F8002003F0A2F8002003F082
:104EC0009FF8002003F09CF8002003F099F8F020F0
:104ED00003F09CF8002003F093F8502003F090F8C2
:104EE000002003F08DF8002003F08AF8002003F082
:104EF00087F8F32003F08AF8002003F081F8F92006
:104F000003F084F8062003F07BF8102003F078F813
:104F1000292003F075F8002003F072F83A2003F01E
:104F200075F8552003F06CF8112003F06FF8642039
:104F300004F08AFF292003F069F8352003F066F8B1
:104F4000002003F05DF8512003F060F8FF2003F02B
:104F500057F8532003F05AF82C2003F051F855204D
:104F600003F054F8822003F04BF82C2003F04EF8A5
:104F700002F0E9B8FE48808845F2105188427DD1A0
:104F800055214FF4704003F051F8AA214FF201006F
:104F900003F04CF852214FF2020003F047F80821C9
:104FA0004FF2030003F042F801214FF2040003F036
:104FB0003DF80D214FF4304003F038F80D214BF24D
:104FC000010003F033F80D214BF2020003F02EF83C
:104FD00034214FF4364003F029F834214BF20160BC
:104FE00003F024F834214BF2026003F01FF80D2186
:104FF0004FF4314003F01AF80D214BF2011003F089
:1050000015F80D214BF2021003F010F834214FF483
:10501000374003F00BF834214BF2017003F006F82F
:1050200034214BF2027003F001F800214FF43240BA
:1050300002F0FCFF00214BF2012002F0F7FF0021FB
:105040004BF2022002F0F2FF24214FF4384002F02C
:10505000EDFF24214BF6010002F0E8FF24214BF67E
:10506000020002F0E3FF01214FF43F4002F0DEFFB7
:105070000F214FF4334002F0D9FF00E0FDE30F2190
:105080004BF2013002F0D2FF0F214BF2023002F05E
:10509000CDFF34214FF4394002F0C8FF34214BF6E4
:1050A000011002F0C3FF34214BF6021002F0BEFFE4
:1050B00008214FF4354002F0B9FF08214BF20150AE
:1050C00002F0B4FF08214BF2025002F0AFFF0321BF
:1050D0004FF4424002F0AAFF24214FF43A4002F07C
:1050E000A5FF24214BF6012002F0A0FF24214BF65E
:1050F000022002F09BFF00214FF43C4002F096FF9B
:1051000078214BF6014002F091FF00214BF602405E
:1051100002F08CFF00214FF43D4002F087FF782120
:105120004BF6015002F082FF00214BF6025002F0D4
:105130007DFF00214FF43E4002F078FF64214BF6E2
:10514000016002F073FF00214FF4514002F06EFF46
:1051500033214DF2011002F069FF00214DF20210DF
:1051600002F064FF34214DF2031002F05FFF0021D2
:105170004DF2041002F05AFF3A214DF2051002F0F0
:1051800055FF00214DF2061002F050FF4A214DF26A
:10519000071002F04BFF00214DF2081002F046FF0D
:1051A0005C214DF2091002F041FF00214DF20A107E
:1051B00002F03CFF81214DF20B1002F037FF00217D
:1051C0004DF20C1002F032FFA6214DF20D1002F04C
:1051D0002DFF00214DF20E1002F028FFE5214DF2C7
:1051E0000F1002F023FF01214DF2101002F01EFFFC
:1051F00013214DF2111002F019FF01214DF212108E
:1052000002F014FF54214DF2131002F00FFF0121A0
:105210004DF2141002F00AFF82214DF2151002F037
:1052200005FF01214DF2161002F000FFCA214DF2D8
:10523000171002F0FBFE02214DF2181002F0F6FEEC
:1052400000214DF2191002F0F1FE02214DF21A1068
:1052500002F0ECFE01214DF21B1002F0E7FE0221EC
:105260004DF21C1002F0E2FE34214DF21D1002F04E
:10527000DDFE02214DF21E1002F0D8FE67214DF234
:105280001F1002F0D3FE02214DF2201002F0CEFEDC
:1052900084214DF2211002F0C9FE02214DF22210AC
:1052A00002F0C4FEA4214DF2231002F0BFFE022141
:1052B0004DF2241002F0BAFEB7214DF2251002F093
:1052C000B5FE02214DF2261002F0B0FECF214DF2C4
:1052D000271002F0ABFE02214DF2281002F0A6FECC
:1052E000DE214DF2291002F0A1FE02214DF22A101A
:1052F00002F09CFEF2214DF22B1002F097FE0221EB
:105300004DF22C1002F092FEFE214DF22D1002F013
:105310008DFE03214DF22E1002F088FE10214DF279
:105320002F1002F083FE03214DF2301002F07EFEBA
:1053300033214DF2311002F079FE03214DF232108B
:1053400002F074FE6D214DF2331002F06FFE002169
:105350004FF4524002F06AFE33214DF2012002F078
:1053600065FE00214DF2022002F060FE342101E0D2
:10537000586E00204DF2032002F058FE00214DF23D
:10538000042002F053FE3A214DF2052002F04EFEB9
:1053900000214DF2062002F049FE4A214DF207207D
:1053A00002F044FE00214DF2082002F03FFE5C2195
:1053B0004DF2092002F03AFE00214DF20A2002F0DF
:1053C00035FE81214DF20B2002F030FE00214DF21E
:1053D0000C2002F02BFEA6214DF20D2002F026FE3D
:1053E00000214DF20E2002F021FEE5214DF20F20AA
:1053F00002F01CFE01214DF2102002F017FE1321D5
:105400004DF2112002F012FE01214DF2122002F0A5
:105410000DFE54214DF2132002F008FE01214DF241
:10542000142002F003FE82214DF2152002F0FEFD51
:1054300001214DF2162002F0F9FDCA214DF217208C
:1054400002F0F4FD02214DF2182002F0EFFD0021E0
:105450004DF2192002F0EAFD02214DF21A2002F06D
:10546000E5FD01214DF21B2002F0E0FD02214DF28D
:105470001C2002F0DBFD34214DF21D2002F0D6FD90
:1054800002214DF21E2002F0D1FD67214DF21F20B6
:1054900002F0CCFD02214DF2202002F0C7FD842154
:1054A0004DF2212002F0C2FD02214DF2222002F035
:1054B000BDFDA4214DF2232002F0B8FD02214DF2E2
:1054C000242002F0B3FDB7214DF2252002F0AEFDFD
:1054D00002214DF2262002F0A9FDCF214DF2272016
:1054E00002F0A4FD02214DF2282002F09FFDDE21F2
:1054F0004DF2292002F09AFD02214DF22A2002F0FD
:1055000095FDF2214DF22B2002F090FD02214DF28B
:105510002C2002F08BFDFE214DF22D2002F086FDA5
:1055200003214DF22E2002F081FD10214DF22F209B
:1055300002F07CFD03214DF2302002F077FD332193
:105540004DF2312002F072FD03214DF2322002F0C3
:105550006DFD6D214DF2332002F068FD00214FF406
:10556000534002F063FD33214DF2013002F05EFD45
:1055700000214DF2023002F059FD34214DF203308A
:1055800002F054FD00214DF2043002F04FFD3A21AB
:105590004DF2053002F04AFD00214DF2063002F0D6
:1055A00045FD4A214DF2073002F040FD00214DF249
:1055B000083002F03BFD5C214DF2093002F036FD6F
:1055C00000214DF20A3002F031FD81214DF20B3005
:1055D00002F02CFD00214DF20C3002F027FDA62137
:1055E0004DF20D3002F022FD00214DF20E3002F09E
:1055F0001DFDE5214DF20F3002F018FD01214DF2A5
:10560000103002F013FD13214DF2113002F00EFDA7
:1056100001214DF2123002F009FD54214DF21330F8
:1056200002F004FD01214DF2143002F0FFFC822152
:105630004DF2153002F0FAFC01214DF2163002F065
:10564000F5FCCA214DF2173002F0F0FC02214DF2B8
:10565000183002F0EBFC00214DF2193002F0E6FCAC
:1056600002214DF21A3002F0E1FC01214DF21B3013
:1056700002F0DCFC02214DF21C3002F0D7FC342198
:105680004DF21D3002F0D2FC02214DF21E3002F02C
:10569000CDFC67214DF21F3002F0C8FC02214DF213
:1056A000203002F0C3FC84214DF2213002F0BEFC18
:1056B00002214DF2223002F0B9FCA4214DF2233038
:1056C00002F0B4FC02214DF2243002F0AFFCB7210D
:1056D0004DF2253002F0AAFC02214DF2263002F0F4
:1056E000A5FCCF214DF2273002F0A0FC02214DF2A3
:1056F000283002F09BFCDE214DF2293002F096FCAE
:1057000002214DF22A3002F091FCF2214DF22B30B1
:1057100002F08CFC02214DF22C3002F087FCFE21BD
:105720004DF22D3002F082FC03214DF22E3002F0BA
:105730007DFC10214DF22F3002F078FC03214DF258
:10574000303002F073FC33214DF2313002F06EFC48
:1057500003214DF2323002F069FC6D214DF23330FD
:1057600002F064FC00214FF4544002F05FFC33214E
:105770004DF2014002F05AFC00214DF2024002F0CD
:1057800055FC34214DF2034002F050FC00214DF253
:10579000044002F04BFC3A214DF2054002F046FC79
:1057A00000214DF2064002F041FC4A214DF2074033
:1057B00002F03CFC00214DF2084002F037FC5C2175
:1057C0004DF2094002F032FC00214DF20A4002F095
:1057D0002DFC81214DF20B4002F028FC00214DF2FE
:1057E0000C4002F023FCA6214DF20D4002F01EFCFD
:1057F00000214DF20E4002F019FCE5214DF20F4060
:1058000002F014FC01214DF2104002F00FFC1321B4
:105810004DF2114002F00AFC01214DF2124002F05B
:1058200005FC54214DF2134002F000FC01214DF221
:10583000144002F0FBFB82214DF2154002F0F6FB12
:1058400001214DF2164002F0F1FBCA214DF2174042
:1058500002F0ECFB02214DF2184002F0E7FB0021C0
:105860004DF2194002F0E2FB02214DF21A4002F023
:10587000DDFB01214DF21B4000E006E302F0D6FB08
:1058800002214DF21C4002F0D1FB34214DF21D40AB
:1058900002F0CCFB02214DF21E4002F0C7FB672153
:1058A0004DF21F4002F0C2FB02214DF2204002F0F7
:1058B000BDFB84214DF2214002F0B8FB02214DF2E4
:1058C000224002F0B3FBA4214DF2234002F0AEFBD4
:1058D00002214DF2244002F0A9FBB7214DF22540F0
:1058E00002F0A4FB02214DF2264002F09FFBCF21E3
:1058F0004DF2274002F09AFB02214DF2284002F0BF
:1059000095FBDE214DF2294002F090FB02214DF281
:105910002A4002F08BFBF2214DF22B4002F086FB75
:1059200002214DF22C4002F081FBFE214DF22D4070
:1059300002F07CFB03214DF22E4002F077FB102198
:105940004DF22F4002F072FB03214DF2304002F085
:105950006DFB33214DF2314002F068FB03214DF223
:10596000324002F063FB6D214DF2334002F05EFBEA
:1059700000214FF4554002F059FB33214DF2015004
:1059800002F054FB00214DF2025002F04FFB342193
:105990004DF2035002F04AFB00214DF2045002F098
:1059A00045FB3A214DF2055002F040FB00214DF23B
:1059B000065002F03BFB4A214DF2075002F036FB45
:1059C00000214DF2085002F031FB5C214DF20950EC
:1059D00002F02CFB00214DF20A5002F027FB81213E
:1059E0004DF20B5002F022FB00214DF20C5002F060
:1059F0001DFBA6214DF20D5002F018FB00214DF2C7
:105A00000E5002F013FBE5214DF20F5002F00EFB99
:105A100001214DF2105002F009FB13214DF21150FB
:105A200002F004FB01214DF2125002F0FFFA542162
:105A30004DF2135002F0FAFA01214DF2145002F027
:105A4000F5FA82214DF2155002F0F0FA01214DF2E3
:105A5000165002F0EBFACA214DF2175002F0E6FAA6
:105A600002214DF2185002F0E1FA00214DF21950D6
:105A700002F0DCFA02214DF21A5002F0D7FA0121AD
:105A80004DF21B5002F0D2FA02214DF21C5002F0EE
:105A9000CDFA34214DF21D5002F0C8FA02214DF228
:105AA0001E5002F0C3FA67214DF21F5002F0BEFAF9
:105AB00002214DF2205002F0B9FA84214DF221501A
:105AC00002F0B4FA02214DF2225002F0AFFAA42102
:105AD0004DF2235002F0AAFA02214DF2245002F0B6
